{
  "contractName": "Election",
  "abi": [
    {
      "constant": true,
      "inputs": [],
      "name": "destination_count",
      "outputs": [
        {
          "name": "",
          "type": "uint256"
        }
      ],
      "payable": false,
      "stateMutability": "view",
      "type": "function"
    },
    {
      "constant": true,
      "inputs": [
        {
          "name": "",
          "type": "address"
        }
      ],
      "name": "voters",
      "outputs": [
        {
          "name": "",
          "type": "bool"
        }
      ],
      "payable": false,
      "stateMutability": "view",
      "type": "function"
    },
    {
      "constant": true,
      "inputs": [
        {
          "name": "",
          "type": "uint256"
        }
      ],
      "name": "Destinations",
      "outputs": [
        {
          "name": "name",
          "type": "string"
        },
        {
          "name": "vote_count",
          "type": "uint256"
        },
        {
          "name": "id",
          "type": "uint256"
        }
      ],
      "payable": false,
      "stateMutability": "view",
      "type": "function"
    },
    {
      "constant": true,
      "inputs": [],
      "name": "contractOwner",
      "outputs": [
        {
          "name": "",
          "type": "address"
        }
      ],
      "payable": false,
      "stateMutability": "view",
      "type": "function"
    },
    {
      "inputs": [],
      "payable": false,
      "stateMutability": "nonpayable",
      "type": "constructor"
    },
    {
      "anonymous": false,
      "inputs": [
        {
          "indexed": false,
          "name": "destination_id",
          "type": "uint256"
        },
        {
          "indexed": false,
          "name": "name",
          "type": "string"
        },
        {
          "indexed": false,
          "name": "total_vote",
          "type": "uint256"
        }
      ],
      "name": "Regestering_destination",
      "type": "event"
    },
    {
      "anonymous": false,
      "inputs": [
        {
          "indexed": false,
          "name": "id",
          "type": "uint256"
        }
      ],
      "name": "Voted",
      "type": "event"
    },
    {
      "constant": false,
      "inputs": [
        {
          "name": "_id",
          "type": "uint256"
        }
      ],
      "name": "add_vote",
      "outputs": [],
      "payable": false,
      "stateMutability": "nonpayable",
      "type": "function"
    }
  ],
  "bytecode": "0x608060405234801561001057600080fd5b50336000806101000a81548173ffffffffffffffffffffffffffffffffffffffff021916908373ffffffffffffffffffffffffffffffffffffffff1602179055506060604051908101604052806040805190810160405280600381526020017f4d6572000000000000000000000000000000000000000000000000000000000081525081526020016000815260200160008152506001600080815260200190815260200160002060008201518160000190805190602001906100d39291906102c1565b5060208201518160010155604082015181600201559050506060604051908101604052806040805190810160405280600881526020017f4d6f6e7461676e6500000000000000000000000000000000000000000000000081525081526020016000815260200160018152506001600060018152602001908152602001600020600082015181600001908051906020019061016e9291906102c1565b5060208201518160010155604082015181600201559050506060604051908101604052806040805190810160405280600881526020017f43616d7061676e650000000000000000000000000000000000000000000000008152508152602001600081526020016002815250600160006002815260200190815260200160002060008201518160000190805190602001906102099291906102c1565b5060208201518160010155604082015181600201559050506060604051908101604052806040805190810160405280600981526020017f436974792d7472697000000000000000000000000000000000000000000000008152508152602001600081526020016003815250600160006003815260200190815260200160002060008201518160000190805190602001906102a49291906102c1565b506020820151816001015560408201518160020155905050610366565b828054600181600116156101000203166002900490600052602060002090601f016020900481019282601f1061030257805160ff1916838001178555610330565b82800160010185558215610330579182015b8281111561032f578251825591602001919060010190610314565b5b50905061033d9190610341565b5090565b61036391905b8082111561035f576000816000905550600101610347565b5090565b90565b610597806103756000396000f3fe60806040526004361061006d576000357c0100000000000000000000000000000000000000000000000000000000900463ffffffff16806346e5ced91461007257806356d43c1e146100ad578063a3ec138d146100d8578063af21db5f14610141578063ce606ee014610203575b600080fd5b34801561007e57600080fd5b506100ab6004803603602081101561009557600080fd5b810190808035906020019092919050505061025a565b005b3480156100b957600080fd5b506100c261045f565b6040518082815260200191505060405180910390f35b3480156100e457600080fd5b50610127600480360360208110156100fb57600080fd5b81019080803573ffffffffffffffffffffffffffffffffffffffff169060200190929190505050610464565b604051808215151515815260200191505060405180910390f35b34801561014d57600080fd5b5061017a6004803603602081101561016457600080fd5b8101908080359060200190929190505050610484565b6040518080602001848152602001838152602001828103825285818151815260200191508051906020019080838360005b838110156101c65780820151818401526020810190506101ab565b50505050905090810190601f1680156101f35780820380516001836020036101000a031916815260200191505b5094505050505060405180910390f35b34801561020f57600080fd5b50610218610546565b604051808273ffffffffffffffffffffffffffffffffffffffff1673ffffffffffffffffffffffffffffffffffffffff16815260200191505060405180910390f35b60001515600260003373ffffffffffffffffffffffffffffffffffffffff1673ffffffffffffffffffffffffffffffffffffffff16815260200190815260200160002060009054906101000a900460ff161515141515610322576040517f08c379a00000000000000000000000000000000000000000000000000000000081526004018080602001828103825260208152602001807f54686520766f74652068617320616c7265616479206265656e2063617374656481525060200191505060405180910390fd5b600081101580156103335750600481105b15156103a7576040517f08c379a000000000000000000000000000000000000000000000000000000000815260040180806020018281038252600e8152602001807f496e76616c6964206f7074696f6e00000000000000000000000000000000000081525060200191505060405180910390fd5b6001600260003373ffffffffffffffffffffffffffffffffffffffff1673ffffffffffffffffffffffffffffffffffffffff16815260200190815260200160002060006101000a81548160ff02191690831515021790555060016000828152602001908152602001600020600101600081548092919060010191905055507f7f511e347bf51eed3be100b3194247d5207f05f3b33de7d31e3e8ee73199a049816040518082815260200191505060405180910390a150565b600481565b60026020528060005260406000206000915054906101000a900460ff1681565b6001602052806000526040600020600091509050806000018054600181600116156101000203166002900480601f0160208091040260200160405190810160405280929190818152602001828054600181600116156101000203166002900480156105305780601f1061050557610100808354040283529160200191610530565b820191906000526020600020905b81548152906001019060200180831161051357829003601f168201915b5050505050908060010154908060020154905083565b6000809054906101000a900473ffffffffffffffffffffffffffffffffffffffff168156fea165627a7a723058209bcc06724889901ed577053aabfe0c6fa9c918bd91e5d164d9b8b3c1c7447f8a0029",
  "source": "pragma solidity >=0.4.20;\n\ncontract Election{\n    \n    //false: not voted \n    //true: voted\n    //model a Candidate\n    //struct for Candidates\n    \n    event Regestering_destination(uint256 destination_id,  string name, uint256 total_vote);\n    event Voted(uint256 id);\n    \n    \n    \n    struct Destination{\n        string name;\n        uint256 vote_count;\n        uint256 id;\n    }\n    \n    \n    \n    \n    \n    uint256 constant public destination_count = 4 ;\n    \n    address public contractOwner;\n    \n    constructor()public {\n        contractOwner = msg.sender;\n        Destinations[0] = Destination(\"Mer\",0,0);\n        Destinations[1] = Destination(\"Montagne\",0,1);\n        Destinations[2] = Destination(\"Campagne\",0,2);\n        Destinations[3] = Destination(\"City-trip\",0,3);\n    }\n    \n    \n    \n    mapping(uint256 => Destination)public Destinations;\n    mapping(address => bool) public voters;\n    \n    modifier onlyOwner(){\n        require(contractOwner == msg.sender, \"You are not authorised to proceed\");\n        _;\n        \n    }\n    \n    modifier already_voted(){\n        require(voters[msg.sender] ==  false, 'The vote has already been casted');\n        _;\n    }\n    \n   \n    \n    //store Candidate    \n    //fetch Candidate\n    //store candidate count\n    \n    \n    // FUNCTION TO vote\n    function add_vote(uint256 _id) public already_voted(){\n        require(_id >= 0 && _id < destination_count, \"Invalid option\");\n        voters[msg.sender] = true;\n        Destinations[_id].vote_count++;\n        emit Voted(_id);\n        // ,Candidates[_id].vote_count\n    }\n    \n    \n    \n\n}\n\n",
  "sourcePath": "C:\\Users\\ademb\\OneDrive\\Desktop\\Voting-Dapp-main\\contracts\\Election.sol",
  "compiler": {
    "name": "solc",
    "version": "0.5.0+commit.1d4f565a.Emscripten.clang"
  },
  "schemaVersion": "3.4.5",
  "updatedAt": "2022-02-22T10:35:15.511Z",
  "networkType": "ethereum",
  "devdoc": {
    "methods": {}
  },
  "userdoc": {
    "methods": {}
  }
}